:020000040800F2
:1000000090810020B502000819260008E1030008CD
:100010003D22000855140008A1550008000000000A
:10002000000000000000000000000000453700084C
:10003000D1170008000000002B03000899390008C0
:10004000D3020008D3020008D3020008D30200083C
:10005000D3020008D3020008D3020008D517000815
:10006000D3020008D3020008D3020008D30200081C
:10007000D3020008D3020008D3020008D30200080C
:10008000D3020008D3020008D3020008D3020008FC
:10009000D3020008D3020008D30200080D1800089C
:1000A000D3020008D3020008D3020008D3020008DC
:1000B000D3020008D3020008D3020008D3020008CC
:1000C000D3020008D3020008D3020008D3020008BC
:1000D000D3020008014D0008254D0008494D0008D5
:1000E000D3020008D3020008D3020008D30200089C
:1000F000D3020008D3020008D3020008D30200088C
:10010000D3020008D3020008D3020008D30200087B
:100110002D4C0008514C0008853A0008D302000815
:10012000D3020008D3020008D3020008D30200085B
:10013000D3020008D3020008D3020008D30200084B
:10014000D3020008D3020008D3020008D30200083B
:10015000D3020008D3020008D3020008D30200082B
:10016000D3020008D3020008D3020008D30200081B
:10017000D3020008D3020008D3020008D30200080B
:10018000D3020008D3020008D3020008C54C0008BF
:10019000D3020008D3020008D3020008D3020008EB
:1001A000D3020008D3020008D302000800F002F8CE
:1001B00000F070F80AA090E8000C82448344AAF191
:1001C0000107DA4501D100F065F8AFF2090EBAE88F
:1001D0000F0013F0010F18BFFB1A43F0010318477B
:1001E00070BD010090BD01000A444FF0000C10F8F2
:1001F000013B13F0070408BF10F8014B1D1108BFA5
:1002000010F8015B641E05D010F8016B641E01F844
:10021000016BF9D113F0080F1EBF10F8014BAD1C94
:100220000C1B09D16D1E58BF01F801CBFAD505E0B2
:1002300014F8016B01F8016B6D1EF9D59142D6D30C
:10024000704700000023002400250026103A28BF34
:1002500078C1FBD8520728BF30C148BF0B60704738
:10026000642900F0AF81782900F0E881732900F05B
:10027000D684002070471FB515F0E3FC00F08CFD1C
:1002800004000020002114F04FFE401C60601FBDE0
:1002900010B510BD00F05BFD1146FFF7ECFF0DF04F
:1002A0008FFD00F08BFD03B4FFF7F2FF03BC00F0FD
:1002B0008FFD00000A4880470A4880470A480047E7
:1002C000FEE7FEE7FEE7FEE7FEE7FEE7FEE7FEE706
:1002D000FEE7FEE705480649064A074B704700005F
:1002E000493C0108293A0008AD010008905A002055
:1002F00090810020905C0020905C0020EFF3108043
:1003000072B6704780F3108870473A4A1368012B21
:1003100004D04FF001031360374A1060374A116070
:1003200037484FF0805101607047EFF3108272B68A
:100330003048016821B34FF0000101602E48016888
:1003400091B1EFF309811EF0100F08BF21ED108B62
:1003500021E9F00F4FF000041EF0100F08BF012438
:1003600041F8044D0068016024490968096808C91A
:10037000B1E8F00F002B18BFB1EC108B81F30988A6
:1003800082F310884EF0100E002B18BF2EF0100EC6
:100390004EF0040E704719490860EFF3148222F002
:1003A000040282F3148814494FF0000008601149D8
:1003B0004FF00100086013484FF47F01D0F800208F
:1003C00041EA020101600E484FF0805101600E4881
:1003D0000068006800BF80F3088862B6704700BFFD
:1003E000EFF3098000B510F009FA5DF804EB4EF068
:1003F000040E704740080020380800203C08002008
:1004000004ED00E020ED00E008ED00E053EA020C0E
:1004100000F069802DE9F04B4FF00006002B1FBF64
:10042000B3FA83F503FA05F424FA05F65E4012BF29
:100430001643B2FA82F502FA05F4C5F120051EBF93
:1004400022FA05FC44EA0C04203556EA044C4FEA33
:10045000144418BF641C4FF000084FF0000990428C
:1004600071EB030C39D3002919BFB1FA81F701FAF6
:1004700007F6B0FA80F700FA07F6C7F120071EBFAB
:1004800020FA07FC46EA0C062037B6FBF4FCA7EB83
:100490000507103F07F01F0BCBF120060CFA0BFBF2
:1004A0002CFA06F644BFB3460026202FA4BF5E46B2
:1004B0004FF0000B5BEA060C08BF4FF0010B19EB85
:1004C0000B09ABFB027C48EB0608C01B06FB02CC09
:1004D0000BFB03CC71EB0C01C1E70B460246414616
:1004E0004846BDE8F08B13B54FF000004FF0000117
:1004F000AFF30080BDE81C40704700000FB41CB58E
:10050000074B06AA7B4469460090059800F05DFB06
:100510000020694600F06CFB1CBC5DF814FB000079
:10052000E906000070B5044685690068C10601D57A
:10053000302600E02026C00707D070BDD4E9012195
:1005400030469047206A401C20626D1EF6D570BD73
:1005500070B5044685690078C00707D170BDD4E93D
:10056000012120209047206A401C20626D1EF6D594
:1005700070BD70B50C460546012A05D02878800666
:1005800000D5EA69002302E0012305E05B1C9342E9
:1005900002D2E05C0028F9D1A869E618C01AA86167
:1005A000286A184428622846FFF7BCFF04E0D5E912
:1005B000012114F8010B9047B442F8D32846FFF705
:1005C000C7FF70BD2DE9F04106460024106875296B
:1005D000314616A510D0AFF30080002802DA404261
:1005E00013A507E031688A0701D512A502E0490783
:1005F00004D511A5012401E0AFF3008000210A22F7
:1006000006F1240709E0B0FBF2FCB0FBF2F302FBB9
:100610001C00303078541846491C0028F3D123467A
:100620002A463046BDE8F04100F071BA00000000F3
:100630002D0000002B0000002000000070B50446D3
:100640000D4621461068AFF300802188090502D5C8
:100650000F4A7A4402E00E4A7A440E32002104F135
:10066000240305E000F00F060009965D5E54491C66
:100670000028F7D120780023000704D5702D02D080
:1006800009B1022311322046BDE8704000F03FBAA4
:100690003EB201002DE9F0474FF0000A89460446BA
:1006A000C0F820A02046E1688847002876D0252899
:1006B00006D0D4E901219047206A401C2062F1E76E
:1006C000E168204600258847C4F81CA0064600279C
:1006D000C4F818A02A2E09D0304606F06BFB38B3B8
:1006E00004EB8708303EC8F8186019E059F8041B7D
:1006F000204604EB87029161E1688847012F064696
:1007000018D1E069002820DA25F020051DE0D8F88E
:10071000180000EB800006EB40003038C8F81800E5
:100720002046E1688847064606F044FB0028EED1E3
:10073000012F0AD02E2E08D12046E16888477F1C61
:100740000646022F45F02005C4DBA069002803DA25
:10075000404245F00105A061E80701D025F01005F1
:10076000B6B1A6F14100192802D8203645F400653B
:100770004A463146204625604D46FFF771FD58B187
:10078000012806D0ED1D25F0070000F1080989E7D2
:1007900004E005F1040985E730468AE7206ABDE8F0
:1007A000F08770B5064600F0A3F9046805463046A8
:1007B0000A22002100F037FA2C6070BD10B5431CEE
:1007C00002E010F8011B71B18107FAD14FF001323C
:1007D00002C88C1A8C4314EAC211F9D0C01A0A0656
:1007E00003D0C01E10BDC01A10BD0A0401D0801E67
:1007F00010BD0902FCD0401E10BD40EA010370B5D7
:100800009B072ED14FF00136042A2AD308C810C9FD
:100810009D1B9D43121F15EAC61517D0D8B2E1B231
:10082000401A50EA056110D198B2A1B2401A50EABC
:1008300005410AD123F07F4024F07F41401A50EA5D
:10084000052102D1180EA0EB146070BDA342DBD0CD
:1008500018BA21BA884201D9012070BD4FF0FF308B
:1008600070BD0AB9002070BD10F8013B11F8014BB2
:1008700063B1A3420AD1521E08D010F8013B11F80F
:10088000014B1BB1A34201D1521EEDD1181B70BD0B
:10089000032A40F2308010F0030C00F0158011F8AC
:1008A000013BBCF1020F624498BF11F801CB00F884
:1008B000013B38BF11F8013BA2F1040298BF00F8D8
:1008C00001CB38BF00F8013B11F0030300F0258095
:1008D000083AC0F0088051F8043B083A51F804CBBC
:1008E000A0E80810F5E7121D5CBF51F8043B40F882
:1008F000043BAFF30080D20724BF11F8013B11F88D
:1009000001CB48BF11F8012B24BF00F8013B00F8D0
:1009100001CB48BF00F8012B704710B5203AC0F05A
:100920000B80B1E81850203AA0E81850B1E81850F0
:10093000A0E81850BFF4F5AF5FEA027C24BFB1E82D
:100940001850A0E8185044BF18C918C0BDE810409E
:100950005FEA827C24BF51F8043B40F8043B08BFA7
:100960007047D20728BF31F8023B48BF11F8012B6E
:1009700028BF20F8023B48BF00F8012B70474FF01A
:1009800000020429C0F0128010F0030C00F01B805C
:10099000CCF1040CBCF1020F18BF00F8012BA8BF6A
:1009A00020F8022BA1EB0C0100F00DB85FEAC17C2E
:1009B00024BF00F8012B00F8012B48BF00F8012BE1
:1009C00070474FF0000200B5134694469646203912
:1009D00022BFA0E80C50A0E80C50B1F12001BFF4F8
:1009E000F7AF090728BFA0E80C5048BF0CC05DF85E
:1009F00004EB890028BF40F8042B08BF704748BFAC
:100A000020F8022B11F0804F18BF00F8012B70471F
:100A100010B5044610F0030F08BF11F0030F40F0AB
:100A200015804FF0013E121FC0F20E8051F8043BBA
:100A3000A3EB0E0C2CEA030C1CEACE1C08BF40F8FA
:100A4000043BF0D0A1F1040102F10402521E08DBC4
:100A500011F8013B002B00F8013BF7D11146FFF7DD
:100A60008EFF204610BD00004FF0013C50F8042BD3
:100A700051F8043B9A4221D1A2EB0C03934313EAB1
:100A8000CC1317D150F8042B51F8043B9A4215D1DE
:100A9000A2EB0C03934313EACC130BD150F8042BB5
:100AA00051F8043B9A4209D1A2EB0C03934313EA99
:100AB000CC13DBD04FF00000704700BFD01A01BA52
:100AC000B1FA81F101F0180122FA01F0CB40C1F135
:100AD0002001DBB2C0B2C01A2CFA01F3D11A914343
:100AE00011EAC311E6D170477047704770470000A4
:100AF000004870472C5A002010B5FFF7F9FF006836
:100B000010BD10B50446FFF7F3FF046010BD2DE9DA
:100B1000F0470D4699469246044600F124080168C4
:100B2000880604D5E06921F01001216000E0012071
:100B3000A84201DD471B00E00027A1697A1902EBFA
:100B40000900081AA0612078C00602D42046FFF7E9
:100B5000E9FC002608E0D4E901211AF806009047D4
:100B6000206A401C761C20624E45F4DB2078C006CB
:100B70000AD52046FFF7D6FC06E0D4E90121302053
:100B80009047206A401C2062381EA7F10107F4DC60
:100B900007E0D4E9012118F805009047206A401CBD
:100BA0002062281EA5F10105F3DC2046FFF7D0FCEA
:100BB0002078000602D50220BDE8F0870120FBE77F
:100BC00001694A1C02610878704700B58FB0CDE911
:100BD00001310021059105497944CDE90310114601
:100BE0006846FFF757FD0FB000BD0000E5FFFFFFAF
:100BF0000A6802F8010B0A60704710B5436913B127
:100C0000AFF3008001E0FFF7B4FC012010BD1278C3
:100C100000F124010A7000224A700122EDE71168F8
:100C20004FF0FF32E9E72DE9F04791460F46804645
:100C30000446002614F8015B2DB100F031F800687D
:100C4000405DC007F6D12B2D02D02D2D18D0641E8B
:100C50004A463946204600F02BF827B13968A142B0
:100C600001D1C7F800804FF0020471050BD5404256
:100C7000002803DDFFF73CFF0460A007BDE8F08714
:100C800046F48066E4E70028F8DAFFF731FF0460F5
:100C90006FF00040F2E70000004870472C5A002037
:100CA00010B500F079F8001D10BD00BF7D420100B5
:100CB0002DE9F05F824615468B4600270AF10104B4
:100CC000B9460078302801D09DB113E014F8010B2B
:100CD0000127782803D0582801D045B10AE00DB18A
:100CE000102D07D1002714F8010B102502E008256C
:100CF00000E00A250026B0460EE005FB080005FBD3
:100D000006F101271FFA80F801EB1046B6F5803F87
:100D100000D3B94614F8010B294600F041F8002829
:100D2000EBDABBF1000F05D00FB1641E00E05446B2
:100D3000CBF80040B9F1000F06D0FFF7D9FE022131
:100D40000160C81EBDE8F09F48EA0640FAE7754614
:100D5000FFF7A2FFAE4605006946534620F00700A4
:100D6000854618B020B5FFF7B5FABDE820404FF032
:100D700000064FF000074FF000084FF0000B21F085
:100D80000701AC46ACE8C009ACE8C009ACE8C00952
:100D9000ACE8C0098D467047004870474C5A0020A7
:100DA0003A2800D2303820F02002412A01D3A2F1A3
:100DB0003700884201D34FF0FF30704710B504462A
:100DC000AFF300802046BDE81040FFF76CBA00008A
:100DD00001491820ABBEFEE7260002007047000064
:100DE00070B504460F480D4684420AD00E4884422E
:100DF00007D00E48844204D04FF4C9710CA006F00D
:100E000091FA55B1012D04D040F2931108A006F0DB
:100E100089FAA06840F0010002E0A06820F001001B
:100E2000A06070BD0020014000210140002201406F
:100E30002E2E5C53746D4C69625C53544D333246B4
:100E40003478785F5374645065726970685F447277
:100E5000697665725C7372635C73746D3332663489
:100E600078785F6164632E630000000010B501684C
:100E70000446E1B101291AD0022918D0052916D05B
:100E8000062914D0072912D0092910D011290ED013
:100E900012290CD015290AD0162908D0172906D0F6
:100EA000192904D040F2591133A006F03BFA6068CA
:100EB00068B1B0F5803F0AD0B0F5003F07D0B0F57B
:100EC000403F04D04FF4AD712BA006F02BFAA06880
:100ED00068B1B0F5804F0AD0B0F5004F07D0B0F53B
:100EE000404F04D040F25B1123A006F01BFAE168EA
:100EF00089B3B1F5807F2ED0B1F5007F2BD0B1F54D
:100F0000407F28D0B1F5806F25D0B1F5A06F22D0F9
:100F1000B1F5C06F1FD0B1F5E06F1CD0B1F5006F17
:100F200019D0B1F5106F16D0B1F5206F13D0B1F50F
:100F3000306F10D0B1F5406F0DD0B1F5506F0AD0C1
:100F4000B1F5606F07D0B1F5706F04D04FF4AE719A
:100F500009A006F0E7F9174AD2F804031649084039
:100F6000D4E900131943D4E902342343194301435C
:100F7000C2F8041310BD00002E2E5C53746D4C6932
:100F8000625C53544D3332463478785F5374645006
:100F900065726970685F4472697665725C737263CA
:100FA0005C73746D3332663478785F6164632E638A
:100FB0000000000000200140E030FCFF70B5044656
:100FC0000F480D4684420AD00E48844207D00E488E
:100FD000844204D040F21F410CA006F0A3F955B1A1
:100FE000012D04D04FF4846108A006F09BF9A0689D
:100FF00040F4807002E0A06820F48070A06070BDB2
:101000000020014000210140002201402E2E5C53AF
:10101000746D4C69625C53544D3332463478785F5A
:101020005374645065726970685F44726976657262
:101030005C7372635C73746D3332663478785F61AD
:1010400064632E630000000070B504460F480D462F
:1010500084420AD00E48844207D00E48844204D00D
:1010600040F237410CA006F05DF955B1012D04D0D6
:101070004FF4876108A006F055F9A06840F40070AD
:1010800002E0A06820F40070A06070BD0020014064
:1010900000210140002201402E2E5C53746D4C69EA
:1010A000625C53544D3332463478785F53746450E5
:1010B00065726970685F4472697665725C737263A9
:1010C0005C73746D3332663478785F6164632E6369
:1010D000000000002DE9F041054650480C468542CD
:1010E00009D04F48854206D04E48854203D0F021B2
:1010F0004DA006F017F94FF08076206877004FF08A
:10110000407848B1B04207D0B84205D0404503D03E
:10111000F12145A006F006F9207928B1012803D075
:10112000F22141A006F0FEF8607928B1012803D031
:10113000F3213DA006F0F6F8A06860B1B0F1805F41
:1011400009D0B0F1005F06D0B0F1405F03D0F421C8
:1011500035A006F0E7F8E06868B3B0422BD0B8429B
:1011600029D0404527D0B0F1806F24D0B0F1A06FD6
:1011700021D0B0F1C06F1ED0B0F1E06F1BD0B0F144
:10118000006F18D0B0F1106F15D0B0F1206F12D0F1
:10119000B0F1306F0FD0B0F1406F0CD0B0F1506FA4
:1011A00009D0B0F1606F06D0B0F1706F03D0F521B7
:1011B0001DA006F0B7F8206930B1B0F5006F03D07C
:1011C000F62119A006F0AEF8207D401E0F2803D9A5
:1011D000F72115A006F0A6F8686822492279084090
:1011E000216840EA022001436960A8681E496379CA
:1011F0000840D4E903211143A26842EA43021143A3
:101200000143A960E86A217D20F47000491EC9B23B
:1012100040EA0150E862BDE8F08100000020014092
:1012200000210140002201402E2E5C53746D4C6958
:10123000625C53544D3332463478785F5374645053
:1012400065726970685F4472697665725C73726317
:101250005C73746D3332663478785F6164632E63D7
:1012600000000000FFFEFFFCFDF7FFC02DE9F0418C
:10127000054649481E4617460C4685420AD047484F
:10128000854207D04648854204D040F2CF2145A090
:1012900006F048F844B3012C26D0022C24D0032CAD
:1012A00022D0042C20D0052C1ED0062C1CD0072CBC
:1012B0001AD0082C18D0092C16D00A2C14D00B2CBC
:1012C00012D00C2C10D00D2C0ED00E2C0CD00F2CBC
:1012D0000AD0102C08D0112C06D0122C04D04FF4B8
:1012E000347130A006F01EF8A7F10108B8F10F0F15
:1012F00004D940F2D1212BA006F014F896B1012EAA
:1013000010D0022E0ED0032E0CD0042E0AD0052EA3
:1013100008D0062E06D0072E04D040F2D22121A0FC
:1013200006F000F80722092C0AD9E968A4F10A009E
:1013300000EB40008240914386403143E96007E082
:10134000296904EB4400824091438640314329617E
:101350001F21072F09D26A6B08EB880081408A435E
:10136000844022436A63BDE8F0810D2F09D22A6BC5
:10137000FF1F07EB870081408A43844022432A6392
:10138000F1E7EA6A0D3F07EB870081408A4384401A
:101390002243EA62E7E7000000200140002101400B
:1013A000002201402E2E5C53746D4C69625C5354D4
:1013B0004D3332463478785F537464506572697087
:1013C000685F4472697665725C7372635C73746D96
:1013D0003332663478785F6164632E630000000006
:1013E00010B50446094884420AD00948844207D00F
:1013F0000848844204D040F2463107A005F092FF2D
:10140000A06840F08040A06010BD000000200140B6
:1014100000210140002201402E2E5C53746D4C6966
:10142000625C53544D3332463478785F5374645061
:1014300065726970685F4472697665725C73726325
:101440005C73746D3332663478785F6164632E63E5
:1014500000000000FEE7000070B504462A480D4673
:1014600084423FD02848183084423BD02648303050
:10147000844237D024484830844233D022486030F8
:1014800084422FD02048783084422BD01E489030A0
:10149000844227D01C48A830844223D01B48844271
:1014A00020D01A48183084421CD01848303084426A
:1014B00018D016484830844214D014486030844212
:1014C00010D01248783084420CD0104890308442BA
:1014D00008D00E48A830844204D040F2E1110CA09C
:1014E00005F020FF55B1012D04D04FF4F17108A093
:1014F00005F018FF206840F0010002E0206820F0AD
:101500000100206070BD00001060024010640240C5
:101510002E2E5C53746D4C69625C53544D333246CD
:101520003478785F5374645065726970685F447290
:10153000697665725C7372635C73746D33326634A2
:1015400078785F646D612E630000000070B5054619
:101550008D480C4685423FD08B48183085423BD0A1
:1015600089483030854237D087484830854233D06B
:101570008548603085422FD08348783085422BD013
:1015800081489030854227D07F48A830854223D0BB
:101590007E48854220D07D48183085421CD07B484B
:1015A0003030854218D079484830854214D0774889
:1015B0006030854210D07548783085420CD0734831
:1015C0009030854208D07148A830854204D04FF44D
:1015D000A2716FA005F0A6FE2068C8B1B0F1007F2F
:1015E00016D0B0F1806F13D0B0F1C06F10D0B0F151
:1015F000006F0DD0B0F1206F0AD0B0F1406F07D06E
:10160000B0F1606F04D040F2451161A005F08AFE90
:10161000E06840B1402806D0802804D04FF4A37180
:101620005BA005F07FFE20694FF6FF71401E8842E7
:1016300004D340F2471156A005F074FE6069B0F57E
:10164000007F05D020B14FF4A47151A005F06AFECF
:10165000A069B0F5806F05D020B140F249114CA0CF
:1016600005F060FEE06950B1B0F5006F07D0B0F54D
:10167000805F04D04FF4A57145A005F053FE206AA9
:1016800050B1B0F5005F07D0B0F5804F04D040F204
:101690004B113FA005F046FE606A38B1B0F5807F7F
:1016A00004D04FF4A6713AA005F03CFEA06A68B1E0
:1016B000B0F5803F0AD0B0F5003F07D0B0F5403F0D
:1016C00004D040F24D1132A005F02CFEE06A30B19A
:1016D000042804D04FF4A7712DA005F023FE206B41
:1016E00050B1012808D0022806D0032804D040F2C7
:1016F0004F1127A005F016FE606B68B1B0F5000F22
:101700000AD0B0F1807F07D0B0F1C07F04D04FF491
:10171000A8711FA005F006FEA06B68B1B0F5001F10
:101720000AD0B0F5800F07D0B0F5C00F04D040F25A
:10173000511117A005F0F6FD29682448E268014020
:1017400020681043D4E905231A431043E26910438B
:10175000226A1043626A1043A26A1043626B10430C
:10176000A26B1043084328606869D4E90B1220F08B
:101770000700114301436961206968606068A860DF
:10178000A068E86070BD0000106002401064024074
:101790002E2E5C53746D4C69625C53544D3332464B
:1017A0003478785F5374645065726970685F44720E
:1017B000697665725C7372635C73746D3332663420
:1017C00078785F646D612E63000000003F801CF03C
:1017D0007047000010B5022000F06AF8002811D010
:1017E0000AF05AF913F09CF808F020FF064C84ED3B
:1017F000010A08F0C7FF84ED020ABDE8104002208C
:1018000000F028B810BD00001800002010B54020DE
:1018100000F04EF820B113F055F9402000F01AF80E
:101820004FF48074204600F043F820B10DF028FFFB
:10183000204600F00FF84FF40074204600F038F80E
:10184000002806D00DF070FF2046BDE8104000F0E3
:1018500001B810BD10B50446C00D00D124B940F246
:10186000231103A005F05EFD1048046010BD0000C8
:101870002E2E5C53746D4C69625C53544D3332466A
:101880003478785F5374645065726970685F44722D
:10189000697665725C7372635C73746D333266343F
:1018A00078785F657874692E63000000143C01400D
:1018B00070B500250446012842D0022C40D0042CEB
:1018C0003ED0082C3CD0102C3AD0202C38D0402CC4
:1018D00036D0802C34D0B4F5807F31D0B4F5007F81
:1018E0002ED0B4F5806F2BD0B4F5006F28D0B4F5AE
:1018F000805F25D0B4F5005F22D0B4F5804F1FD0B3
:10190000B4F5004F1CD0B4F5803F19D0B4F5003FBA
:1019100016D0B4F5802F13D0B4F5002F10D0B4F545
:10192000801F0DD0B4F5001F0AD0B4F5800F07D08A
:10193000B4F5000F04D04FF4867105A005F0F2FC59
:1019400012480068204200D00125284670BD0000E2
:101950002E2E5C53746D4C69625C53544D33324689
:101960003478785F5374645065726970685F44724C
:10197000697665725C7372635C73746D333266345E
:1019800078785F657874692E63000000143C01402C
:1019900070B50446007928B1042803D0832129A01A
:1019A00005F0C0FC6079082807D00C2805D0102865
:1019B00003D0842123A005F0B5FC2068C10D00D11F
:1019C00018B985211FA005F0ADFCA07928B1012828
:1019D00003D086211BA005F0A5FC2949A07958B3A6
:1019E0000868226890430860081D026823689A43CB
:1019F000026020790844026823681A430260204B81
:101A0000083318682268904318601A1D106825680A
:101A1000A84310606079102805D008440168226846
:101A20001143016070BD1868216808431860106890
:101A300021680843106070BD20790844016822685D
:101A40009143EEE72E2E5C53746D4C69625C5354E7
:101A50004D3332463478785F5374645065726970E0
:101A6000685F4472697665725C7372635C73746DEF
:101A70003332663478785F657874692E63000000CD
:101A8000003C01402DE9F05F04464B4800260D461E
:101A9000844221D0494884421ED0494884421BD008
:101AA0004848844218D04848844215D04748844268
:101AB00012D0474884420FD0464884420CD0464852
:101AC000844209D04548844206D04548844203D028
:101AD000CF2144A005F026FC28880004000C03D187
:101AE000D02140A005F01EFC287948B1012807D07C
:101AF000022805D0032803D0D1213AA005F012FC1A
:101B0000E87938B1012805D0022803D0D22135A0C8
:101B100005F008FC4FF0010A4FF0030B0AFA06F03B
:101B2000296881460140494541D1216870000BFA7E
:101B300000F7B943804621602979206801FA08F14D
:101B4000014321602879012801D0022826D1687933
:101B500048B1012807D0022805D0032803D0E4218A
:101B600020A005F0DFFBA068B843A0606879A168F9
:101B700000FA08F00843A060A87928B1012803D032
:101B8000EB2118A005F0CEFB606820EA0900606038
:101B90006168A879B04080B201436160E068B843F1
:101BA000E060E879E16800FA08F00843E060761C3C
:101BB000102EB3D3BDE8F09F0000024000040240A5
:101BC00000080240000C02400010024000140240D5
:101BD00000180240001C0240002002400024024085
:101BE000002802402E2E5C53746D4C69625C535485
:101BF0004D3332463478785F53746450657269703F
:101C0000685F4472697665725C7372635C73746D4D
:101C10003332663478785F6770696F2E6300000036
:101C200070B506463F4815460C46864222D03E48CF
:101C300086421FD03D4886421CD03D48864219D07E
:101C40003C48864216D03C48864213D03B488642E8
:101C500010D03B4886420DD03A4886420AD03A48D6
:101C6000864207D03948864204D040F2492138A044
:101C700005F058FB14B3012C20D0022C1ED0032CED
:101C80001CD0042C1AD0052C18D0062C16D0072CEA
:101C900014D0082C12D0092C10D00A2C0ED00B2CEA
:101CA0000CD00C2C0AD00D2C08D00E2C06D00F2CEA
:101CB00004D040F24A2126A005F034FB15B3092DCB
:101CC00020D0012D1ED0022D1CD0032D1AD0042DA2
:101CD00018D0052D16D0062D14D0072D12D0082DA2
:101CE00010D00A2D0ED00B2D0CD00C2D0AD00D2D9E
:101CF00008D00F2D06D00E2D04D040F24B2114A099
:101D000005F010FB6007C10E8D40E00806EB800077
:101D1000026A0F238B409A430262016A29430162DF
:101D200070BD0000000002400004024000080240B4
:101D3000000C024000100240001402400018024053
:101D4000001C024000200240002402400028024003
:101D50002E2E5C53746D4C69625C53544D33324685
:101D60003478785F5374645065726970685F447248
:101D7000697665725C7372635C73746D333266345A
:101D800078785F6770696F2E6300000070B5054654
:101D90002D4800260C46854222D02C4885421FD073
:101DA0002B4885421CD02B48854219D02A488542B1
:101DB00016D02A48854213D02948854210D0294898
:101DC00085420DD0284885420AD02848854207D050
:101DD0002748854204D04FF4A47126A005F0A2FA4A
:101DE000012C2AD0022C28D0042C26D0082C24D058
:101DF000102C22D0202C20D0402C1ED0802C1CD087
:101E0000B4F5807F19D0B4F5007F16D0B4F5806F9B
:101E100013D0B4F5006F10D0B4F5805F0DD0B4F5D9
:101E2000005F0AD0B4F5804F07D0B4F5004F04D05E
:101E300040F249110FA005F075FA2869204200D040
:101E40000126304670BD0000000002400004024040
:101E500000080240000C0240001002400014024042
:101E600000180240001C02400020024000240240F2
:101E7000002802402E2E5C53746D4C69625C5354F2
:101E80004D3332463478785F5374645065726970AC
:101E9000685F4472697665725C7372635C73746DBB
:101EA0003332663478785F6770696F2E63000000A4
:101EB00070B5044617480D46844222D01648844225
:101EC0001FD0164884421CD01548844219D01548AA
:101ED000844216D01448844213D01448844210D04F
:101EE000134884420DD0134884420AD012488442D9
:101EF00007D01248844204D04FF4DA7110A005F0E4
:101F000011FA25B940F2B5110DA005F00BFA658361
:101F100070BD0000000002400004024000080240C2
:101F2000000C024000100240001402400018024061
:101F3000001C024000200240002402400028024011
:101F40002E2E5C53746D4C69625C53544D33324693
:101F50003478785F5374645065726970685F447256
:101F6000697665725C7372635C73746D3332663468
:101F700078785F6770696F2E6300000070B5044663
:101F800017480D46844222D0164884421FD0164876
:101F900084421CD01548844219D01548844216D07A
:101FA0001448844213D01448844210D01348844209
:101FB0000DD0134884420AD01248844207D01248F8
:101FC000844204D040F29F1110A005F0ABF925B96E
:101FD0004FF4D0710DA005F0A5F9258370BD000068
:101FE000000002400004024000080240000C0240D1
:101FF000001002400014024000180240001C024081
:102000000020024000240240002802402E2E5C5393
:10201000746D4C69625C53544D3332463478785F4A
:102020005374645065726970685F44726976657252
:102030005C7372635C73746D3332663478785F6797
:1020400070696F2E6300000070B5044615480D4698
:10205000844222D0144884421FD0144884421CD0A9
:102060001348844219D01348844216D0124884423F
:1020700013D01248844210D0114884420DD0114828
:1020800084420AD01048844207D01048844204D0C9
:1020900040F2F3110EA005F045F9606968406061F7
:1020A00070BD000000000240000402400008024031
:1020B000000C0240001002400014024000180240D0
:1020C000001C024000200240002402400028024080
:1020D0002E2E5C53746D4C69625C53544D33324602
:1020E0003478785F5374645065726970685F4472C5
:1020F000697665725C7372635C73746D33326634D7
:1021000078785F6770696F2E6300000070B50546D0
:10211000304816460C46854222D02F4885421FD0B3
:102120002E4885421CD02E48854219D02D48854224
:1021300016D02D48854213D02C48854210D02C480B
:1021400085420DD02B4885420AD02B48854207D0C6
:102150002A48854204D04FF4E57129A005F0E2F841
:10216000012C2AD0022C28D0042C26D0082C24D0D4
:10217000102C22D0202C20D0402C1ED0802C1CD003
:10218000B4F5807F19D0B4F5007F16D0B4F5806F18
:1021900013D0B4F5006F10D0B4F5805F0DD0B4F556
:1021A000005F0AD0B4F5804F07D0B4F5004F04D0DB
:1021B00040F2CB1112A005F0B5F846B1012E04D0C3
:1021C0004FF4E6710EA005F0ADF82C8370BD6C8362
:1021D00070BD000000000240000402400008024000
:1021E000000C02400010024000140240001802409F
:1021F000001C02400020024000240240002802404F
:102200002E2E5C53746D4C69625C53544D333246D0
:102210003478785F5374645065726970685F447293
:10222000697665725C7372635C73746D33326634A5
:1022300078785F6770696F2E63000000FEE700002A
:1022400010B5044611482DED028B90EC028A28EE61
:10225000080A08EEA80A04F030F9B5EEC00AF1EE5B
:1022600010FA07D0C8EE000AB0EE608AC8EE800A05
:10227000F0EE608A84ED038A0548C4ED048A90EC90
:10228000020A84EC020ABDEC028B10BD7807002024
:10229000D809002070B51949022400230A6818499A
:1022A0009FED180A012509686FF03106002A04DA4B
:1022B000B24204DC0477524206E0322A03DA0377A2
:1022C00080ED080A06E0057700EE902AF8EEE00AB5
:1022D000C0ED080A002907DAB14207DC4477494219
:1022E00007E080ED090A70BD322901DA4377F8E78B
:1022F000457700EE101AB8EEC00AF2E71C0800207D
:10230000200800200000000070B504462DED028B6F
:102310000D46012011F0A6FA002084F8100184F87F
:102320001101257060719FED1F0A9FED1F8A84EDDA
:102330003D0A84ED3E8A84ED3F8A9FED1C0A201DF4
:1023400000F035F99FED1A1ADFED1A0A9FED1A0A0F
:10235000201D00F020F9B0EE481AF0EE480AB0EE69
:10236000480A201D00F01FF9B0EE481AF0EE480AA6
:10237000B0EE480A201D00F012F9B0EE481AF0EE57
:10238000480AB7EE000A201D00F014F9BDEC028BDC
:102390002046BDE87040DFED090A9FED090A00F014
:1023A00031B900000000204200000000CDCCCC3E3E
:1023B0000000FA43CDCCCC3D0000FA449A99193F75
:1023C000CDCC4C3F70B590ED000AD1ED000A0C4623
:1023D00020EE000A054600EEA00A04F06EF8B5EE05
:1023E000C00AF1EE10FA0BD0D5ED000A80EE801A8B
:1023F00085ED001AD4ED000A80EE801A84ED001AF3
:1024000070BD90ED420A90ED431A70EE010A30EE75
:10241000410A90ED3E1AFDEEE00ABDEEC00AF8EE6C
:10242000E01AB4EEE11AF1EE10FA0DD2D0ED3D1A39
:1024300031EE211AF8EEE01A80ED3E1AB4EEE11A00
:10244000F1EE10FA14DC17E0F8EEE01AB4EEE11A3F
:10245000F1EE10FA10DDD0ED3D1A31EE611AF8EE12
:10246000E01A80ED3E1AB4EEE11AF1EE10FA03D252
:10247000F8EEE00AC0ED3E0AB8EEC01AD0ED3F0A11
:10248000F4EEC10AF1EE10FA0DD290ED3D1A70EEA5
:10249000810AB8EEC01AC0ED3F0AF4EEC10AF1EEAF
:1024A00010FA14DC17E0B8EEC01AF4EEC10AF1EE2F
:1024B00010FA10DD90ED3D1A70EEC10AB8EEC01AA8
:1024C000C0ED3F0AF4EEC10AF1EE10FA03D2B8EE05
:1024D000C00A80ED3F0A90ED3F0ABDEEC00A10EE43
:1024E000101A90ED3E0ABDEEC00A10EE100A11F06F
:1024F000A7B910B5044602F037FB84ED420A94ED0B
:10250000400A84ED410A10BD1CB590ED020AD0EDE1
:10251000300A90ED011AD0ED2F1A30EE600AD0ED9E
:10252000040A71EE611A90ED051A20EE200A0446A5
:1025300001A901EEC10A60EE411A20EE802A90ED59
:10254000120A684660EE200A20EE010A71EEA00A27
:1025500032EE000ACDED000A8DED010AFFF732FFE1
:102560009DED000A204684ED130A9DED010A84EDDD
:10257000140A02F0F9FA84ED420A94ED400A84ED5F
:10258000410A1CBD417819B1012903D1FFF7BCBF35
:10259000FFF7AFBF7047583080EC030A70477C30BC
:1025A00080EC030A70479C3080EC030A704780ED92
:1025B000120A704731B504462DED040B2DED028B48
:1025C000B0EE418A03A902A8FFF7FCFE002060706C
:1025D0009DED020A84ED040ADDED030AC4ED050A4F
:1025E00084ED130AC4ED140A84ED3F8A9FED040ABA
:1025F00084ED408A84ED1D0ABDEC028B05B030BD30
:102600000000000080ED460AC0ED470A002180F876
:10261000161180F815117047704710B500214FF062
:10262000006000F09FF8BDE810404FF4A06000F09B
:1026300063B8000070B50446C0780F2528B10128A2
:1026400003D08D211FA004F06DFE6078102803D305
:102650008E211CA004F066FEA078102803D38F21E1
:1026600018A004F05FFEE078012200B32148006862
:1026700000F4E060C0F5E060C0F30720C0F10401A1
:10268000C54060788840A17829400143080121783D
:1026900001F1E02181F80004207800F01F018A4058
:1026A0004009800000F1E020C0F8002170BD2078D2
:1026B00000F01F018A404009800000F1E020C0F8CE
:1026C000802170BD2E2E5C53746D4C69625C535436
:1026D0004D3332463478785F537464506572697054
:1026E000685F4472697665725C7372635C6D69736E
:1026F000632E63000CED00E010B50446B0F5E06F0A
:102700000FD0B4F5C06F0CD0B4F5A06F09D0B4F5FC
:10271000806F06D0B4F5407F03D0792103A004F088
:1027200001FE0E4804430E48046010BD2E2E5C537B
:10273000746D4C69625C53544D3332463478785F23
:102740005374645065726970685F4472697665722B
:102750005C7372635C6D6973632E63000000FA053D
:102760000CED00E070B50D460446B0F1005F06D0F8
:10277000B4F1006F03D0B72107A004F0D3FD1248D5
:10278000854203D3B82104A004F0CCFD0F480540D6
:102790000F482543056070BD2E2E5C53746D4C6947
:1027A000625C53544D3332463478785F53746450CE
:1027B00065726970685F4472697665725C73726392
:1027C0005C6D6973632E6300FFFF0F0080FFFF1FC6
:1027D00008ED00E00549086810F8082D10F8043FDE
:1027E0001A4400F8042C0860704700009C08002080
:1027F0000349086870E902231A4404C0086070475E
:102800009C0800200549086830F8082D30F8043F7E
:102810001A4420F8042C0860704700009C0800202F
:102820000549086810F8082D10F8043F1A4000F810
:10283000042C0860704700009C08002003490868C9
:1028400070E902231A4004C0086070479C08002009
:102850000549086830F8082D30F8043F1A4020F880
:10286000042C0860704700009C08002003480068A2
:1028700010F8041DC9430170704700009C08002037
:102880000348006850F8041DC94301607047000008
:102890009C0800200348006830F8041DC9430180EB
:1028A000704700009C08002070B57A4A9CB07A4DB1
:1028B00010680CAB10F8011B10602A680020121F72
:1028C0002A6008E00E1A03EB860652F8044946F81F
:1028D000044C401C2A608842F4D3146811297DD22C
:1028E000DFE801F0090B0E12171C232C36404D5C5B
:1028F0006C7D90A5BB00002000E00C98A047C3E0D1
:10290000DDE90C01A047BFE00CAB93E80700A0474E
:10291000BAE00CAE96E80F00A047B5E010980CAEF8
:10292000009096E80F00A047AEE0DDE910010CAE84
:10293000CDE9000196E80F00A047A5E010AB0CAE72
:1029400093E807008DE8070096E80F00A0479BE09A
:1029500010AE96E80F008DE80F000CAE96E80F0061
:10296000A04791E011AE96E80F0001AE86E80F0097
:1029700010980CAE009096E80F00A04784E012AECD
:1029800096E80F0002AE86E80F00DDE910010CAEFC
:10299000CDE9000196E80F00A04775E013AE96E878
:1029A0000F0003AE86E80F0010AB0CAE93E80700F3
:1029B0008DE8070096E80F00A04765E014AE96E8A2
:1029C0000F0004AE86E80F0010AE96E80F008DE809
:1029D0000F000CAE96E80F00A04755E053E015AE8F
:1029E00096E80F0005AE86E80F0011AE96E80F00DE
:1029F00001AE86E80F0010980CAE009096E80F002C
:102A0000A04741E016AE96E80F0006AE86E80F003C
:102A100012AE96E80F0002AE86E80F00DDE9100165
:102A20000CAECDE9000196E80F00A0472CE017AEF0
:102A300096E80F0007AE86E80F0013AE96E80F0089
:102A400003AE86E80F0010AB0CAE93E807008DE8EC
:102A5000070096E80F00A04716E018AE96E80F00B2
:102A600008AE86E80F0014AE96E80F0004AE86E8C4
:102A70000F0010AE96E80F008DE80F000CAE96E840
:102A80000F00A04700E00020296801C129601CB0A8
:102A900070BD0000A00800209C08002005490868BF
:102AA00010F8082D10F8043FB2FBF3F200F8042CE4
:102AB000086070479C0800200449086870E90223F8
:102AC00092FBF3F204C00860704700009C080020ED
:102AD0000549086830F9082D30F9043F92FBF3F2FC
:102AE00020F8042C086070479C0800200549064A1D
:102AF00008680378106800F8043B10600868401C00
:102B000008607047A00800209C080020064908685B
:102B1000C278036862F31F63044A106808C010603B
:102B20000868001D08607047A00800209C0800206D
:102B300007490868C278006862F31F60054A037895
:102B4000106800F8043B10600868001D08607047BA
:102B5000A00800209C0800200348006850F8041DCD
:102B600009780170704700009C0800200749086838
:102B7000C278006862F31F60054A0368106808C0E5
:102B800010600868001D086070470000A008002061
:102B90009C0800200348006850F8041D0968016083
:102BA000704700009C08002007490868C278006848
:102BB00062F31F60054A0388106820F8043B106028
:102BC0000868001D08607047A00800209C080020CD
:102BD0000348006850F8041D098801807047000010
:102BE0009C0800200549064A08680388106820F8F8
:102BF000043B10600868801C08607047A008002033
:102C00009C080020074B10B5186810F8081D10F834
:102C1000042FB1FBF2F402FB141100F8041C18603D
:102C200010BD00009C080020054B10B5186870E925
:102C3000021291FBF2F402FB141102C0186010BDE5
:102C40009C080020074B10B5186830F9081D30F9B2
:102C5000042F91FBF2F402FB141120F8041C1860FD
:102C600010BD00009C0800200549086810F8082DD8
:102C700010F8043F12FB03F200F8042C08607047C0
:102C80009C0800200349086870E902235A4304C0E5
:102C9000086070479C0800200549086830F8082D36
:102CA00030F8043F12FB03F220F8042C0860704750
:102CB0009C080020704700000549086810F8082D9E
:102CC00010F8043F1A4300F8042C08607047000015
:102CD0009C0800200349086870E902231A4304C0D5
:102CE000086070479C0800200549086830F8082DE6
:102CF00030F8043F1A4320F8042C086070470000A5
:102D00009C08002002480168091F0160704700000C
:102D10009C0800200549086810F8082D10F8043FA9
:102D20009A4000F8042C0860704700009C080020BE
:102D30000549086850F8082D10F8043F9A4040F8FB
:102D4000042C0860704700009C08002005490868B2
:102D500030F8082D10F8043F9A4020F8042C086041
:102D6000704700009C0800200549086810F8082DED
:102D700010F8043FDA4000F8042C086070470000A7
:102D80009C0800200549086850F8082D10F8043FF9
:102D90001A4140F8042C0860704700009C0800208D
:102DA0000549086830F9082D10F8043F1A4120F849
:102DB000042C0860704700009C0800200549086842
:102DC00010F8042C50F8080C02700868001F086006
:102DD000704700009C08002004490868083805C8AE
:102DE00002600868001F0860704700009C0800200F
:102DF0000549086830F8042C50F8080C028008686F
:102E0000001F0860704700009C0800200549086802
:102E100010F8082D10F8043FD21A00F8042C0860AE
:102E2000704700009C0800200349086870E90223ED
:102E3000D21A04C0086070479C0800200549086841
:102E400030F8082D30F8043FD21A20F8042C08601E
:102E5000704700009C0800200549086810F8082DFC
:102E600010F8043F5A4000F8042C08607047000036
:102E70009C0800200349086870E902235A4004C0F6
:102E8000086070479C0800200549086830F8082D44
:102E900030F8043F5A4020F8042C086070470000C6
:102EA0009C08002070B504460C480D46044200D131
:102EB00024B940F63B010AA004F034FA174E4DB194
:102EC000012D04D040F63D0105A004F02BFA306836
:102ED000204301E03068A043306070BD00E80B0182
:102EE0002E2E5C53746D4C69625C53544D333246E4
:102EF0003478785F5374645065726970685F4472A7
:102F0000697665725C7372635C73746D33326634B8
:102F100078785F7263632E630000000030380240EF
:102F200070B504460D46400800D124B940F6790139
:102F300009A004F0F7F9174E4DB1012D04D040F669
:102F40007A0105A004F0EEF93068204301E0306812
:102F5000A043306070BD00002E2E5C53746D4C6930
:102F6000625C53544D3332463478785F5374645006
:102F700065726970685F4472697665725C737263CA
:102F80005C73746D3332663478785F7263632E637A
:102F9000000000003838024070B50D46044610F4B9
:102FA000585F00D124B940F6B20109A004F0BAF983
:102FB000164E4DB1012D04D040F6B30104A004F02B
:102FC000B1F93068204301E03068A043306070BD43
:102FD0002E2E5C53746D4C69625C53544D333246F3
:102FE0003478785F5374645065726970685F4472B6
:102FF000697665725C7372635C73746D33326634C8
:1030000078785F7263632E630000000040380240EE
:1030100070B50D46044610F4585F00D124B940F64F
:103020007E1109A004F07EF9164E4DB1012D04D099
:1030300040F67F1104A004F075F93068204301E0E8
:103040003068A043306070BD2E2E5C53746D4C69A7
:10305000625C53544D3332463478785F5374645015
:1030600065726970685F4472697665725C737263D9
:103070005C73746D3332663478785F7263632E6389
:10308000000000002038024070B504460C480D4690
:10309000044200D124B940F6E6010AA004F042F946
:1030A000174E4DB1012D04D040F6E70105A004F004
:1030B00039F93068204301E03068A043306070BDCA
:1030C0000C0008F02E2E5C53746D4C69625C5354F6
:1030D0004D3332463478785F53746450657269704A
:1030E000685F4472697665725C7372635C73746D59
:1030F0003332663478785F7263632E6300000000B9
:103100004438024070B504460C480D46044200D1D4
:1031100024B940F6AD110AA004F004F9174E4DB1E0
:10312000012D04D040F6AE1105A004F0FBF8306884
:10313000204301E03068A043306070BD0C8608F287
:103140002E2E5C53746D4C69625C53544D33324681
:103150003478785F5374645065726970685F447244
:10316000697665725C7372635C73746D3332663456
:1031700078785F7263632E63000000002438024099
:1031800070B5204B1968204C11F00C0104D01F4E73
:10319000042903D0082903D004601BE0066019E06D
:1031A000184A121F1168C1F38055116801F03F01E0
:1031B00015B1B6FBF1F101E0B4FBF1F1146812684E
:1031C000C4F388146143C2F30142521C5200B1FBA4
:1031D000F2F1016019680F2202EA11110C4A545CE5
:1031E0000168E14041601C68072505EA9424145DEC
:1031F00021FA04F484601B6805EA5333D25CD140A1
:10320000C16070BD083802400024F40040787D01A0
:103210002408002070B5044614480D46844213D09B
:103220001348844210D0134884420DD0124884427F
:103230000AD01248844207D01148844204D040F298
:103240002B2110A004F06EF855B1012D04D04FF4DD
:103250000B710CA004F066F8208840F0400002E0FA
:10326000208820F04000208070BD00000030014028
:1032700000380040003C0040003401400050014054
:10328000005401402E2E5C53746D4C69625C5354A3
:103290004D3332463478785F537464506572697088
:1032A000685F4472697665725C7372635C73746D97
:1032B0003332663478785F7370692E6300000000E3
:1032C0002DE9F047244D254E254FDFF89880DFF893
:1032D0009890DFF898A00446A8420DD0B4420BD0D5
:1032E000BC4209D0444507D04C4505D0544503D0D5
:1032F000E3211FA004F016F8AC4202D101210C0317
:103300001FE0B44202D101218C0303E0BC420AD188
:103310000121CC032046FFF77BFE2046BDE8F047A5
:103320000021FFF775BE444502D101214C0308E09E
:103330004C4502D101210C0503E054450AD101217D
:103340004C052046FFF7DEFE2046BDE8F047002191
:10335000FFF7D8BEBDE8F0870030014000380040DC
:10336000003C004000340140005001400054014046
:103370002E2E5C53746D4C69625C53544D3332464F
:103380003478785F5374645065726970685F447212
:10339000697665725C7372635C73746D3332663424
:1033A00078785F7370692E630000000070B5054681
:1033B0001E4800260C46854219D01D48854216D06D
:1033C0001C48854213D01C48854210D01B488542BA
:1033D0000DD01B4885420AD01A48854207D0B5F166
:1033E000402F04D040F29C4117A003F09BFF802C9B
:1033F00015D0402C13D0202C11D0102C0FD0082C1D
:103400000DD0042C0BD0022C09D0012C07D0B4F520
:10341000807F04D040F29D410BA003F083FF2889F8
:10342000204200D00126304670BD0000003001402F
:1034300000380040003C0040003401400050014092
:1034400000540140003400402E2E5C53746D4C69D2
:10345000625C53544D3332463478785F5374645011
:1034600065726970685F4472697665725C737263D5
:103470005C73746D3332663478785F7370692E6371
:103480000000000010B504460F48844219D00F48D0
:10349000844216D00E48844213D00E48844210D085
:1034A0000D4884420DD00D4884420AD00C48844215
:1034B00007D0B4F1402F04D040F2333109A003F01B
:1034C00031FFA08910BD00000030014000380040ED
:1034D000003C0040003401400050014000540140D5
:1034E000003400402E2E5C53746D4C69625C535462
:1034F0004D3332463478785F537464506572697026
:10350000685F4472697665725C7372635C73746D34
:103510003332663478785F7370692E630000000080
:1035200070B504460F480D46844219D00E488442B7
:1035300016D00E48844213D00D48844210D00D4856
:1035400084420DD00C4884420AD00C48844207D0F3
:10355000B4F1402F04D040F2433109A003F0E2FE61
:10356000A58170BD0030014000380040003C0040A3
:10357000003401400050014000540140003400403C
:103580002E2E5C53746D4C69625C53544D3332463D
:103590003478785F5374645065726970685F447200
:1035A000697665725C7372635C73746D3332663412
:1035B00078785F7370692E630000000070B505466F
:1035C0004B480C46854213D04A48854210D04A48A1
:1035D00085420DD0494885420AD04948854207D0E6
:1035E0004848854204D040F2211147A003F09AFEDA
:1035F000208868B1B0F5806F0AD0B0F5004F07D0D1
:10360000B0F5404F04D04FF492713FA003F08AFE12
:103610006088B0F5827F05D020B140F225113AA034
:1036200003F080FEA088B0F5006F05D020B14FF404
:10363000937135A003F076FEE08830B1022804D003
:1036400040F2271130A003F06DFE208930B101282F
:1036500004D04FF494712CA003F064FE6089B0F59F
:10366000007F05D020B140F2291127A003F05AFEB7
:10367000A08990B1082810D010280ED018280CD09E
:1036800020280AD0282808D0302806D0382804D08E
:103690004FF495711CA003F045FEE08930B18028FD
:1036A00004D040F22B1118A003F03CFE208A20B970
:1036B0004FF4967114A003F035FE2888628800F458
:1036C00041512088E3881043A2881A43104322897D
:1036D000104362891043A2891043E28910430843D2
:1036E0002880A88B20F40060A883208A288270BDDF
:1036F0000030014000380040003C004000340140F0
:1037000000500140005401402E2E5C53746D4C69F2
:10371000625C53544D3332463478785F537464504E
:1037200065726970685F4472697665725C73726312
:103730005C73746D3332663478785F7370692E63AE
:10374000000000007047000070B50C46050017D05F
:10375000012D15D0022D13D0032D11D0042D0FD023
:10376000052D0DD0062D0BD0072D09D0082D07D023
:10377000092D05D00A2D03D0AD211DA003F0D2FDE7
:103780000CB3012C1FD0022C1DD0032C1BD0042CF9
:1037900019D0052C17D0062C15D0072C13D0082CC7
:1037A00011D0092C0FD00A2C0DD00B2C0BD00C2CC7
:1037B00009D00D2C07D00E2C05D00F2C03D0AE2134
:1037C0000BA003F0AFFDA007010F184824F003037E
:1037D00018440F22D0F808388A409343C0F80838BC
:1037E000D0F808288D402A43C0F8082870BD000092
:1037F0002E2E5C53746D4C69625C53544D333246CB
:103800003478785F5374645065726970685F44728D
:10381000697665725C7372635C73746D333266349F
:1038200078785F7379736366672E630000300140B8
:103830001CB500212E4A00910191106840F480309F
:1038400010604FF4A043106800F40030019000981D
:10385000401C0090019810B900989842F3D110686C
:10386000800342D50120019021484030016841F099
:10387000805101601F49086840F4404008601C48BE
:10388000083003680360036843F40043036003687F
:1038900043F4A0530360041F174B2360136843F0E5
:1038A0008073136013689B01FCD50A6842F4803270
:1038B0000A604A68D203FCD50A6842F400320A6002
:1038C0004A689203FCD50D4A40F205711160016807
:1038D00021F003010160016841F00201016001680B
:1038E000C1F381010229FAD11CBD01911CBD000068
:1038F0000038024000700040195A4007003C024066
:1039000010B54FF0E02404280AD0401D03D0E22176
:1039100005A003F007FD206920F00400206110BD20
:10392000206940F00400F9E72E2E5C53746D4C6959
:10393000625C53544D3332463478785F537464502C
:1039400065726970685F4472697665725C737263F0
:103950005C6D6973632E63001FB56846FFF710FC4A
:1039600001984FF47A71B0FBF1F0C008401EB0F13D
:10397000807F0AD24FF0E0214861064AF02082F8A9
:10398000140D00208861072008616FF00400FFF724
:10399000B7FF1FBD0FE000E010B50DF0AFF90EF05E
:1039A0001FFFBDE810400DF0BDB9000070B51A4D05
:1039B00028681A4B1A4910F00C0004D0194E04283C
:1039C00003D0082803D00B601BE00E6019E0124AF8
:1039D000121F1068C0F38054106800F03F0014B14B
:1039E000B6FBF0F001E0B3FBF0F013681268C3F32C
:1039F00088135843C2F30142521C5200B0FBF2F04C
:103A000008602868064AC0F30310121D105C0A689B
:103A1000C2400A6070BD0000083802400024F40073
:103A20000000002040787D01124810B5016841F483
:103A3000700101601048016841F0010101600E4A07
:103A400000210832116002680C4B1A400260031D0D
:103A50000B4A1A60026822F48022026006480C3089
:103A60000160FFF7E5FE03494FF000608039086010
:103A700010BD000088ED00E000380240FFFFF6FEB8
:103A80001030002410B5114C0121204600F02AFA14
:103A9000002819D00E4AD2E90401401C41F100016E
:103AA000C2E90401D2E9061351EA030004D0491E19
:103AB00043F1FF30C2E9061010F0E8F92046BDE8F6
:103AC0001040012100F074B810BD0000001000404B
:103AD0003807002070B5044619480D4684422BD0A3
:103AE000B4F1804F28D01748844225D0164884422C
:103AF00022D0164884421FD0154884421CD0154855
:103B0000844219D01448844216D01448844213D0F9
:103B10001348844210D0134884420DD01248844286
:103B20000AD01248844207D01148844204D040F69B
:103B3000B81110A003F0F6FBE843208270BD00002E
:103B4000000001400004004000080040000C00405C
:103B500000100040001400400004014000400140FB
:103B6000004401400048014000180040001C004093
:103B7000002000402E2E5C53746D4C69625C5354DF
:103B80004D3332463478785F53746450657269708F
:103B9000685F4472697665725C7372635C73746D9E
:103BA0003332663478785F74696D2E6300000000EC
:103BB00070B5044619480D4684422BD0B4F1804FAD
:103BC00028D01748844225D01648844222D016486F
:103BD00084421FD0154884421CD01548844219D015
:103BE0001448844216D01448844213D013488442A7
:103BF00010D0134884420DD0124884420AD0124893
:103C0000844207D01148844204D040F6FD1110A030
:103C100003F088FBE843208270BD000000000140F3
:103C20000004004000080040000C0040001000406C
:103C300000140040000401400040014000440140E5
:103C40000048014000180040001C004000200040D7
:103C50002E2E5C53746D4C69625C53544D33324666
:103C60003478785F5374645065726970685F447229
:103C7000697665725C7372635C73746D333266343B
:103C800078785F74696D2E630000000070B504469B
:103C900020480D4684422BD0B4F1804F28D01E48D6
:103CA000844225D01D48844222D01D4884421FD022
:103CB0001C4884421CD01C48844219D01B488442B2
:103CC00016D01B48844213D01A48844210D01A4898
:103CD00084420DD0194884420AD01948844207D042
:103CE0001848844204D040F2532117A003F01AFB75
:103CF00055B1012D04D04FF4157113A003F012FB40
:103D0000208840F0010002E0208820F0010020809F
:103D100070BD0000000001400004004000080040A9
:103D2000000C00400010004000140040000401405E
:103D3000004001400044014000480140001800409C
:103D4000001C0040002000402E2E5C53746D4C6916
:103D5000625C53544D3332463478785F5374645008
:103D600065726970685F4472697665725C737263CC
:103D70005C73746D3332663478785F74696D2E636A
:103D80000000000070B504460F480D46844207D07D
:103D90000E48844204D040F6DC010DA003F0C2FAC4
:103DA0005DB1012D04D040F6DD0109A003F0BAFA9F
:103DB00034F8440F40F4004003E034F8440FC0F3FB
:103DC0000E00208070BD0000000001400004014092
:103DD0002E2E5C53746D4C69625C53544D333246E5
:103DE0003478785F5374645065726970685F4472A8
:103DF000697665725C7372635C73746D33326634BA
:103E000078785F74696D2E630000000010B5044679
:103E1000184884422BD0B4F1804F28D016488442F1
:103E200025D01648844222D0154884421FD0154818
:103E300084421CD01448844219D01448844216D0BD
:103E40001348844213D01348844210D0124884424D
:103E50000DD0124884420AD01148844207D011483C
:103E6000844204D040F2B9110FA003F05BFA606AFB
:103E700010BD0000000001400004004000080040A8
:103E8000000C0040001000400014004000040140FD
:103E9000004001400044014000480140001800403B
:103EA000001C0040002000402E2E5C53746D4C69B5
:103EB000625C53544D3332463478785F53746450A7
:103EC00065726970685F4472697665725C7372636B
:103ED0005C73746D3332663478785F74696D2E6309
:103EE0000000000070B50446274800260D468442B5
:103EF0002BD0B4F1804F28D02448844225D02448C8
:103F0000844222D0234884421FD0234884421CD0BC
:103F10002248844219D02248844216D02148844243
:103F200013D02148844210D0204884420DD020482C
:103F300084420AD01F48844207D01F48844204D0DC
:103F400040F6D6111DA003F0EDF9012D12D0022D7F
:103F500010D0042D0ED0082D0CD0102D0AD0202DFD
:103F600008D0402D06D0802D04D040F6D71113A0E4
:103F700003F0D8F9218AA089294200EA050001D07E
:103F800000B10126304670BD000001400004004031
:103F900000080040000C00400010004000140040E9
:103FA000000401400040014000440140004801403D
:103FB00000180040001C0040002000402E2E5C53E2
:103FC000746D4C69625C53544D3332463478785F7B
:103FD0005374645065726970685F44726976657283
:103FE0005C7372635C73746D3332663478785F74BB
:103FF000696D2E630000000070B504462348164624
:104000000D4684422BD0B4F1804F28D02048844202
:1040100025D02048844222D01F4884421FD01F4808
:1040200084421CD01E48844219D01E48844216D0B7
:104030001D48844213D01D48844210D01C4884423D
:104040000DD01C4884420AD01B48844207D01B482C
:10405000844204D040F6471119A003F063F9280AFE
:1040600000D125B940F6481115A003F05BF94EB117
:10407000012E04D040F6491111A003F053F9A08994
:10408000284301E0A089A843A08170BD0000014041
:104090000004004000080040000C004000100040F8
:1040A0000014004000040140004001400044014071
:1040B0000048014000180040001C00400020004063
:1040C0002E2E5C53746D4C69625C53544D333246F2
:1040D0003478785F5374645065726970685F4472B5
:1040E000697665725C7372635C73746D33326634C7
:1040F00078785F74696D2E63000000002DE9F04749
:10410000DFF84091DFF840A10D460446484524D031
:10411000B4F1804F21D04D4884421ED04C48844297
:104120001BD04C48844218D0544516D04A4884428B
:1041300013D04A48844210D0494884420DD049489F
:1041400084420AD04848844207D04848844204D078
:1041500040F2A62146A003F0E5F8288870B11028A7
:104160000CD020280AD0302808D0602806D070282B
:1041700004D040F2A7213EA003F0D4F8688830B103
:10418000012804D04FF42A7139A003F0CBF8A88994
:1041900030B1022804D040F2A92135A003F0C2F8C2
:1041A000208C20F001002084218CA788208B2A8875
:1041B00020F0730042EA0008A88921F002016E880D
:1041C000084306434C4501D0544533D1A88830B14B
:1041D000042804D040F2C62125A003F0A3F8E88902
:1041E00030B1082804D040F2C72121A003F09AF88A
:1041F000688AB0F5007F05D020B14FF432711CA061
:1042000003F090F8288AB0F5807F05D020B140F205
:10421000C92117A003F086F826F00801E889AE88C6
:10422000084320F00400064327F44071288A6F8A6F
:1042300008430743A780A4F81880A8686063268411
:10424000BDE8F08700000140000401400004004088
:1042500000080040000C00400040014000440140C4
:104260000048014000180040001C004000200040B1
:104270002E2E5C53746D4C69625C53544D33324640
:104280003478785F5374645065726970685F447203
:10429000697665725C7372635C73746D3332663415
:1042A00078785F74696D2E630000000070B5044675
:1042B0001B480D46844225D0B4F1804F22D01948C6
:1042C00084421FD0184884421CD01848844219D018
:1042D0001748844216D01748844213D016488442A7
:1042E00010D0164884420DD0154884420AD0154893
:1042F000844207D01448844204D040F2DB4113A02A
:1043000003F010F8082D05D025B140F2DC410FA0D4
:1043100003F008F8208B20F008002843208370BDAC
:10432000000001400004004000080040000C004074
:1043300000040140004001400044014000480140A9
:1043400000180040001C0040002000402E2E5C534E
:10435000746D4C69625C53544D3332463478785FE7
:104360005374645065726970685F447269766572EF
:104370005C7372635C73746D3332663478785F7427
:10438000696D2E63000000002DE9F05FDFF848A1A1
:10439000DFF848B10D460446504518D0B4F1804FBF
:1043A00015D04F48844212D04E4884420FD04E4818
:1043B00084420CD05C450AD04C48844207D04C481B
:1043C000844204D040F2F7214AA002F0ABFF2888D3
:1043D00070B110280CD020280AD0302808D06028CE
:1043E00006D0702804D04FF43E7142A002F09AFF2C
:1043F000688830B1012804D040F2F9213DA002F0D4
:1044000091FFA88930B1022804D040F2FA2139A0E6
:1044100002F088FF208C20F010002084228CA788D6
:10442000208B2B884FF6FF7920F4E64109EA03231D
:1044300043EA0108A98922F0200209EA0111114387
:104440006A8809EA02160E43544501D05C453BD107
:10445000A88830B1042804D04FF4467125A002F09A
:1044600061FFE88930B1082804D040F2193121A059
:1044700002F058FF688AB0F5007F05D020B140F205
:104480001A311CA002F04EFF288AB0F5807F05D0BB
:1044900020B140F21B3117A002F044FFE98926F059
:1044A000800209EA01111143AA8821F0400109EABA
:1044B00002160E43298A27F4406209EA810111435A
:1044C0006A8A09EA82070F43A780A4F81880A868BF
:1044D000A0632684BDE8F09F000001400004014075
:1044E0000004004000080040000C00400040014073
:1044F000001800402E2E5C53746D4C69625C53545E
:104500004D3332463478785F537464506572697005
:10451000685F4472697665725C7372635C73746D14
:104520003332663478785F74696D2E630000000062
:1045300070B5044617480D46844219D0B4F1804F37
:1045400016D01548844213D01448844210D0144821
:1045500084420DD0134884420AD01348844207D0C5
:104560001248844204D040F2F94111A002F0DAFE70
:10457000082D05D025B140F2FA410DA002F0D2FE7F
:10458000208B4FF6FF7120F4006001EA0521014302
:10459000218370BD0000014000040040000800407D
:1045A000000C0040000401400040014000180040A1
:1045B0002E2E5C53746D4C69625C53544D333246FD
:1045C0003478785F5374645065726970685F4472C0
:1045D000697665725C7372635C73746D33326634D2
:1045E00078785F74696D2E63000000002DE9F05F3C
:1045F000DFF838A1DFF838B10D460446504512D037
:10460000B4F1804F0FD04B4884420CD04A488442CA
:1046100009D04A48844206D05C4504D04FF4527118
:1046200047A002F07FFE288870B110280CD0202807
:104630000AD0302808D0602806D0702804D040F274
:1046400049313FA002F06EFE688830B1012804D0E5
:1046500040F24A313AA002F065FEA88930B1022842
:1046600004D040F24B3136A002F05CFE208C20F4E6
:1046700080702084208CA788A18B2A8821F0730168
:1046800042EA010820F40071A8894FF6FF7909EA8F
:1046900000200843698809EA01260643544501D0F1
:1046A0005C453BD1A88830B1042804D04FF45A713E
:1046B00023A002F037FEE88930B1082804D040F288
:1046C00069311FA002F02EFE688AB0F5007F05D088
:1046D00020B140F26A311AA002F024FE288AB0F517
:1046E000807F05D020B140F26B3115A002F01AFE98
:1046F000E98926F4006209EA01211143AA8821F41C
:10470000806109EA02260E43298A27F4405209EA09
:10471000011111436A8A09EA02170F43A780A4F81E
:104720001C80A868E0632684BDE8F09F000001407B
:10473000000401400004004000080040000C00405C
:104740002E2E5C53746D4C69625C53544D3332466B
:104750003478785F5374645065726970685F44722E
:10476000697665725C7372635C73746D3332663440
:1047700078785F74696D2E630000000070B50446A0
:1047800012480D46844213D0B4F1804F10D0104827
:1047900084420DD00F4884420AD00F48844207D08B
:1047A0000E48844204D040F216510DA002F0BAFD2A
:1047B000082D05D025B140F2175109A002F0B2FD35
:1047C000A08B20F008002843A08370BD00000140AA
:1047D0000004004000080040000C004000040140BC
:1047E0002E2E5C53746D4C69625C53544D333246CB
:1047F0003478785F5374645065726970685F44728E
:10480000697665725C7372635C73746D333266349F
:1048100078785F74696D2E63000000002DE9F05F09
:10482000DFF8E4A0DFF8E4B00D460446504512D0AE
:10483000B4F1804F0FD0364884420CD035488442C2
:1048400009D03548844206D05C4504D04FF46671E7
:1048500032A002F067FD288870B110280CD0202803
:104860000AD0302808D0602806D0702804D040F242
:1048700099312AA002F056FD688830B1012804D091
:1048800040F29A3125A002F04DFDA88930B10228EE
:1048900004D040F29B3121A002F044FD208C20F492
:1048A00080502084218CA688A08B2B884FF6FF791E
:1048B00020F4E64209EA0327174321F40052A989AC
:1048C00009EA013111436A88544509EA023040EA95
:1048D000010801D05C450FD1288AB0F5807F05D052
:1048E00020B140F2B9310DA002F01CFD2A8A26F455
:1048F000804009EA82160643A680A783A868206440
:10490000A4F82080BDE8F09F0000014000040140B1
:104910000004004000080040000C00402E2E5C53B4
:10492000746D4C69625C53544D3332463478785F11
:104930005374645065726970685F44726976657219
:104940005C7372635C73746D3332663478785F7451
:10495000696D2E630000000070B5044614480D46D2
:10496000844213D0B4F1804F10D0124884420DD04D
:10497000114884420AD01148844207D0104884422A
:1049800004D040F233510FA002F0CCFC082D05D02A
:1049900025B140F234510BA002F0C4FCA08B4FF6BD
:1049A000FF7120F4006001EA05210143A18370BD7D
:1049B000000001400004004000080040000C0040DE
:1049C000000401402E2E5C53746D4C69625C53549C
:1049D0004D3332463478785F537464506572697031
:1049E000685F4472697665725C7372635C73746D40
:1049F0003332663478785F74696D2E63000000008E
:104A00002DE9F05F3D4FDFF8F880DFF8F890DFF830
:104A1000F8A03E4E0D4604464FEAB74BB84226D0AA
:104A2000B4F1804F23D0444521D04C451FD054458C
:104A30001DD05C451BD03648844218D0B44216D0F5
:104A40003448844213D03448844210D033488442DE
:104A50000DD0334884420AD03248844207D03248CD
:104A6000844204D040F2251130A002F05BFC68883B
:104A700060B110280AD0202808D0402806D060282D
:104A800004D04FF4937129A002F04CFC288950B156
:104A9000B0F5807F07D0B0F5007F04D040F2271139
:104AA00022A002F03FFC2088BC420AD0B44208D0C9
:104AB000B4F1804F05D0444503D04C4501D0544556
:104AC00003D120F07001688808435C4506D0104986
:104AD0008C4203D020F44071288908432080686804
:104AE000E06228882085BC4201D0B44201D1A87A76
:104AF00020860120A082BDE8F09F00000000014058
:104B00000004004000080040000C00400004014088
:104B100000140040004001400044014000480140B2
:104B200000180040001C0040002000402E2E5C5366
:104B3000746D4C69625C53544D3332463478785FFF
:104B40005374645065726970685F44726976657207
:104B50005C7372635C73746D3332663478785F743F
:104B6000696D2E63000000007CB590ED321A90ED67
:104B7000140AD0ED130AD0ED331A21EE002A0446B0
:104B800000EEE12A61EE200A41EE800AB5EEC02A6D
:104B90008DED012AF1EE10FACDED000A01D20125CA
:104BA00000E0022510EE900AB0F17E5F02DC00EE1C
:104BB000100A03E0B7EE000A8DED000A00F022FDB6
:104BC000022D01D1B1EE400ADFED170AB5EEC00AA1
:104BD000F1EE10FA25D0C4ED190A84ED1A0A30EE70
:104BE000600A84ED1B0AD4ED1D0A94ED171A41EEFC
:104BF000000AC4ED1D0AB0EEE01AD4ED180AF0EE7A
:104C0000E01AB4EEE11AF1EE10FA02DCD4ED1D0A5E
:104C100001E0C4ED1D0A94ED161A41EE000AC4ED40
:104C20001C0AB0EE600A7CBD0000000010B5074C05
:104C300040F22551204600F08DF9002804D020468E
:104C4000BDE8104000F0ECBB10BD0000004C00407F
:104C500070B5194D002440F22551284600F07AF92C
:104C6000002828D0284600F0DBFB144AC1B21448C3
:104C7000117003195B780355641CE4B20D2CF8D352
:104C800001730178AA2916D14178BB2913D1017A81
:104C9000437A01EB03215160837AC47A03EB042346
:104CA00093600479022C01D1494251604079022875
:104CB00001D15842906070BD00500040180800209B
:104CC0005C46002070B50C4D002440F2255128466A
:104CD00000F040F900280DD0284600F0A1FBC1B239
:104CE0000648021952780255641CE4B2642CF8D3C9
:104CF00080F8631070BD0000007C0040300A002086
:104D000010B5074C40F22551204600F023F9002849
:104D100004D02046BDE8104000F082BB10BD00006A
:104D20000010014010B5074C40F22551204600F01C
:104D300011F9002804D02046BDE8104000F070BBF7
:104D400010BD00000044004010B5074C40F2255152
:104D5000204600F0FFF8002804D02046BDE81040AF
:104D600000F05EBB10BD00000048004070B5044676
:104D70001A480D4684421FD0194884421CD0194855
:104D8000844219D01848844216D01848844213D05F
:104D90001748844210D0174884420DD016488442E8
:104DA0000AD01648844207D01548844204D04FF4F4
:104DB000D77114A002F0B6FA55B1012D04D040F21B
:104DC000AF1110A002F0AEFAA08940F4005002E04A
:104DD000A08920F40050A08170BD000000100140A7
:104DE0000044004000480040004C0040005000409B
:104DF0000014014000780040007C00400018014091
:104E0000001C01402E2E5C53746D4C69625C53543F
:104E10004D3332463478785F5374645065726970EC
:104E2000685F4472697665725C7372635C73746DFB
:104E30003332663478785F75736172742E63000064
:104E40002DE9F0472A4F0026DFF8A880DFF8A89068
:104E5000DFF8A8A00D460446B8421CD044451AD03D
:104E60004C4518D02648844215D02648844212D09A
:104E7000544510D0244884420DD0244884420AD09E
:104E80002348844207D02348844204D040F213517F
:104E900021A002F047FA012D23D0802D21D0402DF2
:104EA0001FD0202D1DD0102D1BD0B5F5807F18D020
:104EB000B5F5007F08D0082D13D0042D11D0022D98
:104EC0000FD040F2145109E0BC420AD0444508D04A
:104ED0004C4506D0544504D040F219510EA002F0C2
:104EE00021FA2088284200D001263046BDE8F0870C
:104EF0000010014000440040004800400014014000
:104F0000004C00400050004000780040007C004011
:104F100000180140001C01402E2E5C53746D4C693A
:104F2000625C53544D3332463478785F5374645026
:104F300065726970685F4472697665725C737263EA
:104F40005C73746D3332663478785F757361727434
:104F50002E6300002DE9F05F404F0026DFF800814E
:104F6000DFF800A1DFF800B10D460446B8421CD0BE
:104F700044451AD0544518D03C48844215D03C488A
:104F8000844212D05C4510D03A4884420DD03A4851
:104F900084420AD03948844207D03948844204D038
:104FA00040F2675137A002F0BDF9282D38D0A5F5A1
:104FB000E06040F66A19273823D0A5F5C06026388E
:104FC0001FD0A5F5A06025381BD0A5F5806024383A
:104FD00017D0A5F50060463813D04D4511D0B5F572
:104FE000587F1DD0A5F5407025380AD0B5F5187F3B
:104FF00016D0B5F5B07F13D04FF4AD6121A002F00B
:1050000091F94D450CD1BC420AD0444508D05445D5
:1050100006D05C4504D040F26D511AA002F082F92E
:1050200005F01F020123C5F3421103FA02F0012922
:1050300010D0022910D0A18A4FEA152203FA02F3F8
:105040002288014202EA030201D002B10126304661
:10505000BDE8F09FA189EFE7218AEDE7001001404C
:10506000004400400048004000140140004C004053
:105070000050004000780040007C004000180140D3
:10508000001C01402E2E5C53746D4C69625C5354BD
:105090004D3332463478785F53746450657269706A
:1050A000685F4472697665725C7372635C73746D79
:1050B0003332663478785F75736172742E630000E2
:1050C0002DE9F05F3B4FDFF8F080DFF8F0A0DFF86C
:1050D000F0B016460D460446B8421CD044451AD0DE
:1050E000544518D03748844215D03748844212D0EE
:1050F0005C4510D0354884420DD0354884420AD0F2
:105100003448844207D03448844204D040F2D44129
:1051100032A002F007F940F66A19282D1CD0A5F537
:10512000E060273818D0A5F5C060263814D0A5F562
:10513000A060253810D0A5F5806024380CD0A5F5E6
:105140000060463808D04D4506D0602D04D040F2AE
:10515000D54122A002F0E6F836B1012E04D040F28B
:10516000D6411EA002F0DEF84D450CD1BC420AD05B
:10517000444508D0544506D05C4504D040F2DB419C
:1051800016A002F0CFF805F01F020120C5F342116E
:105190009040012906D0022906D0143421682EB18E
:1051A000014304E00C34F9E71034F7E78143216050
:1051B000BDE8F09F0010014000440040004800405E
:1051C00000140140004C00400050004000780040B6
:1051D000007C004000180140001C01402E2E5C5352
:1051E000746D4C69625C53544D3332463478785F49
:1051F0005374645065726970685F44726976657251
:105200005C7372635C73746D3332663478785F7587
:10521000736172742E6300002DE9FF5F664EDFF844
:105220009C81DFF89C91674F0D460446B0421BD02D
:10523000444519D04C4517D06348844214D0634884
:10524000844211D0BC420FD0614884420CD06148E6
:10525000844209D06048844206D06048844203D02A
:10526000FE215FA002F05EF828686C49401E88426B
:1052700003D3FF215AA002F055F8A8884FF4805AB2
:105280004FF4807B28B1504503D0594654A002F01A
:1052900049F8E88860B150450AD0B0F5005F07D002
:1052A000B0F5405F04D040F201114DA002F03AF891
:1052B000288950B1B0F5806F07D0B0F5C06F04D029
:1052C0004FF4817146A002F02DF8688930F00C018E
:1052D00000D120B940F2031141A002F023F8A889BF
:1052E000D8B158450CD0B0F5007F09D0B0F5407F5B
:1052F00006D04FF482713AA002F014F8A88960B188
:10530000B4420AD0444508D04C4506D0BC4204D033
:1053100040F2091132A002F005F8208AE98820F451
:10532000405001432182A18941F20C608143A88849
:105330002A8910436A890A431043A081A08A20F475
:105340004071A8890843A0826846FDF719FFB4425E
:1053500001D0BC4201D1039800E00298A189090460
:1053600000EBC00101EB0010296801D5490000E005
:105370008900B0FBF1F06422B0FBF2F109010B09E6
:105380006FF018056B4300EB8300A3891D044FF0F9
:10539000320306D503EBC000B0FBF2F000F00700CB
:1053A00005E003EB0010B0FBF2F000F00F00084343
:1053B0002081BDE8FF9F0000001001400044004034
:1053C0000048004000140140004C004000500040E4
:1053D00000780040007C004000180140001C0140A3
:1053E0002E2E5C53746D4C69625C53544D333246BF
:1053F0003478785F5374645065726970685F447282
:10540000697665725C7372635C73746D3332663493
:1054100078785F75736172742E630000E0707200BB
:1054200010B50446134884421FD0134884421CD050
:105430001248844219D01248844216D0114884423E
:1054400013D01148844210D0104884420DD0104827
:1054500084420AD00F48844207D00F48844204D0C7
:105460004FF410710DA001F05DFFA088C0F308009B
:1054700010BD000000100140004400400048004002
:10548000004C0040005000400014014000780040F3
:10549000007C004000180140001C01402E2E5C538F
:1054A000746D4C69625C53544D3332463478785F86
:1054B0005374645065726970685F4472697665728E
:1054C0005C7372635C73746D3332663478785F75C5
:1054D000736172742E63000070B5044617480D4660
:1054E00084421FD0164884421CD01648844219D0EA
:1054F0001548844216D01548844213D0144884427B
:1055000010D0144884420DD0134884420AD0134866
:10551000844207D01248844204D04FF40C7111A089
:1055200001F000FFB5F5007F04D340F231210DA05A
:1055300001F0F8FEC5F30800A08070BD0010014026
:105540000044004000480040004C00400050004033
:105550000014014000780040007C00400018014029
:10556000001C01402E2E5C53746D4C69625C5354D8
:105570004D3332463478785F537464506572697085
:10558000685F4472697665725C7372635C73746D94
:105590003332663478785F75736172742E630000FD
:1055A000FEE703B401984100009850EAC12018BFFB
:1055B00004204A0D18BF40F0010040F2FF72B2EB28
:1055C000515F08BF40F00200012808BF052002B06B
:1055D00070474100080218BF04200A0E18BF40F0AF
:1055E00001004FF07F4232EA010108BF40F00200A3
:1055F000012808BF0520704720F00040C0F1FF409F
:10560000C00F704710B510EE104A4FF01A402DED44
:10561000028B00EB4400B0F1C85F4AD84FF0FC4069
:10562000B0EB440F22D2B0EEC00AF7EE000A30EE23
:10563000C00AF6EE000A20EE208A18EE100A0EF0DC
:10564000BCFA00EE100A14F0004F1DBF9FED281A9F
:10565000DFED280AB1EE400A9FED271A08BFF0EEF1
:10566000410AF8EE001A20EE210A05E020EE008A39
:105670009FED221ADFED220ADFED221A9FED222A8A
:1056800070EEC00A20EE080A08EE212ADFED1F1A8C
:1056900048EE021A9FED1E2A08EE212ADFED1D1AA0
:1056A00048EE021ABDEC028B40EE610A30EE810A30
:1056B00010BD4FF0CC40B0EB440F82BF9FED160AF7
:1056C000BDEC028B10BD4FF07F40B0EB440F05D214
:1056D000BDEC028BBDE8104001F02ABB0120FBF7B6
:1056E00010FABDEC028BBDE8104001F027BB0000B2
:1056F0000000494022AA7D3A000000000000C93F96
:1057000022AAFD3924FE1C3DC78AD83C1E67383DBD
:105710001B93993DAFAA2A3EDB0FC93F0000000052
:1057200070B5C1482DED020B2DED0E8B82B0119D91
:1057300025F000449FEDBEDB9FEDBFEB84423EDBD6
:10574000A4F140511098A1F17F6108430FD0BC48EB
:10575000844202DC28D1109830B39DED100B02B0CA
:10576000BDEC0E8B02B0BDE8704001F0ADBA9DED0E
:10577000100B53EC1D2B51EC100B0FF0CBFE9DEDDD
:10578000100B41EC180B53EC1E2B51EC100B0FF0CF
:10579000C1FE53EC182B0FF01BFC41EC100B02B0B8
:1057A000BDEC0E8B02B070BD0120FBF7AAF902B070
:1057B000BDEC0E8B02B0BDE8704001F099BAA14873
:1057C0009FEDA18B844256DA9DED100BB4F1795F09
:1057D0000ADA51EC100BFFF7E4FE042808BF01F0D1
:1057E00097FA9DED100BDAE753EC102B51EC100BF0
:1057F0000FF090FE41EC190B95480621B0EE490AD6
:10580000F0EE690A784401F04BF953EC192B51EC96
:10581000100B0FF07FFE41EC1A0B8E48B0EE490AD8
:10582000F0EE690A0421784401F03AF953EC192B9F
:1058300051EC100B0FF06EFE53EC182B0FF0C8FB61
:1058400041EC100B51EC1A0B53EC102B0FF074FCC5
:10585000CDE900019DED000B53EC102B9DED100BDD
:1058600051EC100B0FF056FE9DED101B53EC112B5D
:105870000FF0AEFBD2E09DED100B51EC100B03F0DE
:10588000F6FA53EC182B0FF079FF9FED730BCDE96F
:10589000000153EC102B9DED000B51EC100B0FF0A1
:1058A00039FE41EC190B6E480621B0EE490AF0EEC4
:1058B000690A784401F0F4F853EC192B51EC100B01
:1058C0000FF028FE41EC1B0B6648B0EE490AF0EEE3
:1058D000690A0421784401F0E3F853EC192B51ECE8
:1058E000100B0FF017FE53EC182B0FF071FB41EC6F
:1058F0001C0B51EC190B0EF029F941EC180B5A480E
:105900009FED5BABA04222DC53EC1C2B51EC1B0B3C
:105910000FF012FCCDE900019DED000B51EC180BCE
:1059200053EC102B0FF0F6FD53EC182B0FF050FB3F
:1059300053EC1A2B0FF0EEFD53EC1D2B0FF0F6FF7E
:1059400053EC1E2B0FF01AFF41EC100B5FE08DEDB6
:10595000008B002000909DED000B51EC180B53ECD8
:10596000102B0FF035FB9DED000B41EC1E0B53ECA3
:10597000102B51EC100B0FF0CDFD53EC192B0FF049
:10598000FDFE53EC1E2B0FF0D7FB41EC190B53EC33
:105990001C2B51EC1B0B0FF0CFFB41EC1B0B53EC02
:1059A0001A2B51EC190B0FF0B5FD53EC1D2B0FF01A
:1059B000E5FE41EC190B53EC1A2B51EC180B0FF0D0
:1059C000A9FD53EC1B2B0FF0A5FD53EC192B0FF089
:1059D000ADFF9DED000B41EC180B53EC1A2B51EC75
:1059E000100B0FF097FD9FED249B53EC192B0FF03C
:1059F000C5FE41EC100B51EC180B53EC102B0FF0C3
:105A000095FF53EC192B0FF0B9FE41EC100B002D54
:105A10003FF7C5AE51EC100B0FF09CFA41EC100BA8
:105A2000BDE60000000000000000F03F00000000A4
:105A3000075C143326A6913C182D4454FB21F93FF2
:105A40000000F07F0000E03F000000000000F03F99
:105A5000B8600100C6600100000000000000E03FE7
:105A60000A600100186001003333EF3F00000000BE
:105A70000000000000000040182D4454FB21E93FC5
:105A800070B59B482DED020B2DED068B079D25F083
:105A90000044A04218DC9748844202DC0AD10698F0
:105AA00040B19DED060BBDEC068B02B0BDE8704029
:105AB00001F00AB9002DCCBF9FED8F0B9FED900B2D
:105AC000BDEC068B02B070BD8F48A04215DD8F483B
:105AD000A042D8BF4FF0FF3458DD9DED060B51ECCE
